:0400000058EF00F0C5
:100008003582FACF2DF0FBCF2EF0D9CF2FF0DACFF3
:1000180030F0F2AC12EF00F014EF00F04EEF00F009
:100028009DA819EF00F01BEF00F031EF00F09EA83B
:1000380020EF00F022EF00F031EF00F002D82FEFB0
:1000480000F00500FA6E2B50FD6E2C50FE6EF85035
:10005800FF6EFA5012004EEF00F09DAA36EF00F046
:1000680038EF00F04EEF00F09EAA3DEF00F03FEFB2
:1000780000F04EEF00F002D84CEF00F00500FA6EE9
:100088002950FD6E2A50FE6EF850FF6EFA5012008D
:100098004EEF00F030C0DAFF2FC0D9FF2EC0FBFFB3
:0C00A8002DC0FAFF35921100E6EF08F0C1
:100F00000009111A222B333C444D555E666F7780E1
:100F1000889199A2AAB3BBC4CCD5DDE6EEF7FFF762
:100F2000EEE6DDD5CCC4BBB3AAA299918880776FD9
:100F3000665E564D443C332B221A11090000000016
:100F400000000000000000000000000000000000A1
:100F50000000000000000000000000FFFFFFFFFF96
:100F6000FFFFFFFFFFFFFFFFFFFFFFFFFFFFFFFF91
:100F7000FFFFFFFFFFFFFFFFFFFEFEFCF9F4EEE7C0
:100F8000DED5CABFB3A79A8D7F7265584C40352A0B
:100F90002118110B060301000103060B1118212A69
:100FA00035404C586572808D9AA7B3BFCAD5DEE72D
:100FB000EEF4F9FCFE02403100001E50010FD96E24
:100FC000DA6ADF6AABA4E7EF07F0E9EF07F0FBEFBF
:100FD00007F01E50010FD96EDA6ADF8202D8FBEFEC
:100FE00007F00500FA6E2750FD6E2850FE6EF8508F
:100FF000FF6EFA501200ABA200EF08F002EF08F00B
:1010000014EF08F01E50010FD96EDA6ADF8402D89F
:1010100014EF08F00500FA6E2550FD6E2650FE6EA6
:10102000F850FF6EFA5012001E50010FD96EDA6AA6
:10103000DF50D8B41EEF08F020EF08F02FEF08F0D3
:1010400002D82DEF08F00500FA6E2350FD6E2450F3
:10105000FE6EF850FF6EFA50120031EF08F0D3EC3C
:1010600008F012009D9ABA0E316E0F0E326E3AECF5
:1010700009F09D98180E316E110E326E35EC09F0A4
:10108000080EA76E900EAB6E240EAC6E080EAF6EFF
:10109000020E7D6EAC0E316E120E326E44EC09F013
:1010A0009C0E316E120E326E3FEC09F0A20E316EC4
:1010B000120E326E49EC09F0000E1B6E000E216E0E
:1010C000000E206E080E1F6E000E1E6E000E1D6EAE
:1010D000000E1C6E9D8A1200000E346E3450790F83
:1010E000336E33C0F6FF0F0EF76E0800F55019ECA3
:1010F00009F0C40E00D000D0E82EFCD700D00000CC
:10110000342A3B0E346487EF08F089EF08F06EEF65
:1011100008F06CEF08F01200080E1F6092EF08F064
:1011200094EF08F0A8EF08F02050110FD96EDA6A9A
:10113000DF50AD6E202A070E2064A1EF08F0A3EF68
:1011400008F0A5EF08F0000E206E1F2AA9EF08F0A6
:101150009D981200000EAA6E000ECF6E000ECE6E8D
:101160009E90CE50CFCF31F0326A31C032F0316A2A
:101170003110196E32501A6E310ECD6E1200000E03
:10118000896E000E8A6E000E8B6ECF0E926E936883
:10119000970E946E1F0E0F015D6F070E5C6F000EB1
:1011A0005B6FF18E12001E50090FD96EDA6AAECF56
:1011B000DFFF1E2A070E1E64E0EF08F0E2EF08F0E2
:1011C000E4EF08F0000E1E6E1C2A120000EE01F083
:1011D000220EEE6AE806FDE135903592000EF86EBB
:1011E00000010DEF09F0316E31C0C9FF9EA6FBEF83
:1011F00008F0FDEF08F0F6EF08F09E96C9501200D7
:1012000054EC09F023EC09F0BFEC08F02CEC09F0E9
:10121000AAEC08F032EC08F0120000EC09F0F28EB3
:10122000F28CC68A898A6CEC08F013EF09F058EF4B
:1012300000F0326E899A110EF3EC08F03250F3ECA4
:1012400008F0898A1200400EC76E020EC66E310E7B
:10125000C86E9496C69A1200600ED36E000ED26EBF
:10126000000E9B6E000E9A6E120031C02BF032C041
:101270002CF0120031C029F032C02AF0120031C027
:1012800025F032C026F0120031C027F032C028F01D
:10129000120031C023F032C024F01200AB98AB88AA
:0E12A0001200D3EC08F01200D09E12001200D3
:020000040020DA
:08000000FFFFFFFFFFFFFFFF00
:020000040030CA
:0E00000015027F50FF8991FF0FC00FE00F40E7
:00000001FF
